:020000040800F2
:10000000B054002009030008F13500087D2F0008D6
:10001000293500084F060008594300080000000079
:10002000000000000000000000000000490200087D
:10003000C10A000800000000A5020008B539000848
:1000400023030008230300082303000823030008F8
:1000500023030008230300082303000823030008E8
:1000600023030008230300082303000823030008D8
:1000700023030008ED0900082303000823030008F8
:10008000F9090008230300082303000823030008DC
:100090005106000823030008230300082303000877
:1000A0002303000823030008230300082303000898
:1000B000893A0008230300082303000823030008EB
:1000C0002303000823030008230300082303000878
:1000D00023030008E141000835420008230300081B
:1000E0002303000823030008230300082303000858
:1000F000230300089D3A0008230300082303000897
:100100002303000823030008230300082303000837
:10011000DD3B0008293C00082303000823030008F6
:100120002303000823030008050A0008230300082E
:100130002303000800000000000000002303000863
:100140005D060008230300082303000823030008BA
:100150002303000823030008110A0008E9420008ED
:1001600023030008230300082303000823030008D7
:100170002303000823030008000000000000000023
:10018000230300082303000800F002F800F04CF8F5
:100190000AA090E8000C82448344AAF10107DA45E2
:1001A00001D100F041F8AFF2090EBAE80F0013F0E8
:1001B000010F18BFFB1A43F00103184754760000E3
:1001C000747600000A4410F8014B14F00F0508BFC4
:1001D00010F8015B240908BF10F8014B6D1E05D013
:1001E00010F8013B6D1E01F8013BF9D1641E03D0EC
:1001F000641E01F8015BFBD19142E4D3704700001B
:100200000023002400250026103A28BF78C1FBD81F
:10021000520728BF30C148BF0B6070471FB507F0B9
:1002200048F81FBD10B510BD00F0DCF91146FFF70E
:10023000F5FF05F0C1FA00F0FAF903B4FFF7F2FF99
:1002400003BC00F0FDF900002C4B19680868B0E809
:10025000F04F80F30988BFF36F8F4FF0000080F3F9
:10026000118870470000000008480068006880F3AB
:1002700008884FF0000080F3148862B661B6BFF3BF
:100280004F8FBFF36F8F00DF00BF00BF08ED00E0AE
:10029000DFF80C00016841F470010160704700BF95
:1002A00088ED00E0EFF30980BFF36F8F134B1A68FE
:1002B0001EF0100F08BF20ED108A20E9F04F1060EB
:1002C00009B44FF0500080F31188BFF34F8FBFF394
:1002D0006F8F06F035F84FF0000080F3118809BCED
:1002E00019680868B0E8F04F1EF0100F08BFB0ECB6
:1002F000108A80F30988BFF36F8F704734000020A5
:10030000EFF305807047000009488047094800471F
:10031000FEE7FEE7FEE7FEE7FEE7FEE7FEE7FEE7B5
:10032000FEE7FEE704480549054A064B7047000012
:10033000793A000889010008B04E0020B05400202E
:10034000B0500020B050002053EA020C00F0698049
:100350002DE9F04B4FF00006002B1FBFB3FA83F5D9
:1003600003FA05F424FA05F65E4012BF1643B2FA0A
:1003700082F502FA05F4C5F120051EBF22FA05FC3C
:1003800044EA0C04203556EA044C4FEA144418BFE2
:10039000641C4FF000084FF00009904271EB030C11
:1003A00039D3002919BFB1FA81F701FA07F6B0FA7B
:1003B00080F700FA07F6C7F120071EBF20FA07FCF6
:1003C00046EA0C062037B6FBF4FCA7EB0507103F06
:1003D00007F01F0BCBF120060CFA0BFB2CFA06F6EC
:1003E00044BFB3460026202FA4BF5E464FF0000B4B
:1003F0005BEA060C08BF4FF0010B19EB0B09ABFBD6
:10040000027C48EB0608C01B06FB02CC0BFB03CCAE
:1004100071EB0C01C1E70B46024641464846BDE878
:10042000F08B13B54FF000004FF00001AFF30080E8
:10043000BDE81C407047032A40F2308010F0030CE6
:1004400000F0158011F8013BBCF1020F624498BF27
:1004500011F801CB00F8013B38BF11F8013BA2F1C4
:10046000040298BF00F801CB38BF00F8013B11F03F
:10047000030300F02580083AC0F0088051F8043BDF
:10048000083A51F804CBA0E80810F5E7121D5CBF4C
:1004900051F8043B40F8043BAFF30080D20724BF7F
:1004A00011F8013B11F801CB48BF11F8012B24BF13
:1004B00000F8013B00F801CB48BF00F8012B704762
:1004C00010B5203AC0F00B80B1E81850203AA0E8EF
:1004D0001850B1E81850A0E81850BFF4F5AF5FEA23
:1004E000027C24BFB1E81850A0E8185044BF18C9D6
:1004F00018C0BDE810405FEA827C24BF51F8043B7D
:1005000040F8043B08BF7047D20728BF31F8023BD0
:1005100048BF11F8012B28BF20F8023B48BF00F864
:10052000012B70474FF000020429C0F0128010F038
:10053000030C00F01B80CCF1040CBCF1020F18BFBF
:1005400000F8012BA8BF20F8022BA1EB0C0100F052
:100550000DB85FEAC17C24BF00F8012B00F8012B25
:1005600048BF00F8012B70474FF0000200B513465A
:1005700094469646203922BFA0E80C50A0E80C50C3
:10058000B1F12001BFF4F7AF090728BFA0E80C5074
:1005900048BF0CC05DF804EB890028BF40F8042B6D
:1005A00008BF704748BF20F8022B11F0804F18BFDA
:1005B00000F8012B704770477047704710B500F086
:1005C00009F8006810BD10B5044600F003F8046097
:1005D00010BD0000004870474C4E00200048704796
:1005E0004C4E00207546FFF7F9FFAE460500694600
:1005F000534620F00700854618B020B5FFF792FE5D
:10060000BDE820404FF000064FF000074FF0000813
:100610004FF0000B21F00701AC46ACE8C009ACE894
:10062000C009ACE8C009ACE8C0098D46704710B5F8
:100630000446AFF300802046BDE81040FFF7FDBD43
:1006400001491820ABBEFEE7260002007047FEE716
:10065000014800F03ABD000094030020014800F07A
:1006600034BD0000BC03002000B58BB00020012188
:10067000CDE9060108910090019002900390059049
:10068000049069460C4800F025FC0B4800F0A2FFDE
:100690000221094800F09EFB0E2009900590694652
:1006A000064800F017FC054800F094FF02210348BB
:1006B00000F090FB0BB000BD94030020BC030020B1
:1006C0000A4908B540F233320A6000228A60CA60E3
:1006D00008220A610649020A6B460A7048700A46F7
:1006E0000249044800F088FB08BD00006447002070
:1006F000F20000209403002038B50E4C4FF4007532
:1007000025600025A560E560082525610A4C050ADD
:1007100025706070080AA070E170100A2071627183
:10072000180AA071E3716B4622460249034800F0A3
:1007300063FB38BD4C470020EA00002094030020F2
:1007400008B50B4A40F2FF13136000239360D36097
:1007500008231361074A030A9370D070080A1071C6
:1007600051716B460249044800F046FB08BD000089
:100770001C470020DA000020BC0300200A4908B50D
:1007800040F2FF120A6000228A60CA6008220A61F1
:100790000649020A6B460A7048700A460249044834
:1007A00000F02AFB08BD00001C470020DA000020F2
:1007B0009403002008B50B4A4FF400731360002324
:1007C0009360D36008231361074A030A13705070C3
:1007D000080A9070D1706B460249044800F00CFB87
:1007E00008BD000034470020E2000020BC030020C8
:1007F00004F012FB022005F00FF8F9E72DE9F04FA5
:100800000024DDE90EA5DDE90B6BDDE9097EDDF8ED
:10081000349006E0C4F10208641C00F808C0032C00
:1008200004DA11F804C0BCF1000FF3D1C17841F033
:10083000380162F30201C170B0F8031063F389114B
:10084000A0F80310017967F385010171B0F8072062
:100850006BF30902A0F80720028969F38C02028178
:10086000B0F809206AF34F12A0F8092082886EF3CD
:100870008E128280B0F8051066F3CF11A0F8051033
:10088000002104E0431815F8012BDA73491CB1422A
:10089000F8D3BDE8F08F00000FB44FF6FF7070B5CD
:1008A00092B03022ADF8000016A905A8FFF708FEA7
:1008B000A5208DF804002F4C3320ADF805002078DA
:1008C00001AD8DF80700FF220421284600F074FADC
:1008D0008DF8080040F20130ADF809004FF488703F
:1008E000ADF80C000420ADF80E004FF48270ADF8A6
:1008F0001000BDF800200721284600F047FAADF8A7
:100900000000024603A8062100F040FAADF80000FE
:10091000024605A82D2100F039FAADF800000026A6
:10092000287803F053FC6D1C761C072EF8D303AD1A
:100930000026287803F04AFC6D1C761C062EF8D39E
:1009400005AD0026287803F041FC6D1C761C2D2E89
:10095000F8D36D460026287803F038FC6D1C761C11
:10096000022EF8D32078401C207012B0002070BCFA
:100970005DF814FBC50000202DE9F0470024DDE9F7
:100980000A95DDE90876DDF830A006E0C4F102083A
:10099000641C00F808C0032C04DA11F804C0BCF190
:1009A000000FF3D110F8031F21F03801103162F36A
:1009B00002010170018863F389110180417867F3B6
:1009C00085014170818866F309018180B0F80520B6
:1009D00069F38C02A0F80520C18865F34F11C1802E
:1009E00002896AF309020281BDE8F087014800F03C
:1009F0007FBE000080050020014800F079BE0000A5
:100A0000A0060020014800F073BE0000E0050020B1
:100A1000014800F06DBE0000400600200168182368
:100A2000CAB2103AB2FBF3F2054B6FF30901032A85
:100A30009B5CC36500D9091D8165084670470000AD
:100A40008C73000810B5014600208B698A6A4FF04C
:100A5000C07453B1B3F5005F15D072B1012A0CD048
:100A6000022A0AD0032A09D104E01AB1012A06D0C9
:100A7000022A03D1C96AC90100D5012010BDC96A83
:100A8000A142FAD010BD002AF7D0012AF2D0022AE2
:100A9000F3D0032AF3D010BD30B50468256825F4DF
:100AA00080252560046863608368402B036803D059
:100AB00099600068C26030BD9A600068C16030BD56
:100AC000704710B504F06CFEFFF7CEFDBDE8104096
:100AD00003F010BC72B6FEE704F060FD022004F0E3
:100AE0009BFEF9E72DE9F0419EB00F219548FFF7F5
:100AF00019FD94480F210F30FFF714FD91480F2185
:100B00001E30FFF70FFD8F480F212D30FFF70AFD34
:100B10008C480F213C30FFF705FD8A480F214B30F0
:100B2000FFF700FD87480F215A30FFF7FBFC85488F
:100B30002D216930FFF7F6FC82482D219630FFF712
:100B4000F1FC4FF470704FF41B714FF4A572CDE9B6
:100B50000401CDE9020201240425CDE90054092352
:100B6000224679A1774802F0D9FA4FF45C774FF426
:100B700011704FF482660297CDE903060590714823
:100B8000CDE900540923012270A10F3002F0C6FA0A
:100B90004FF407704FF48C61CDE903010095059087
:100BA0004FF44872CDE9014266480923012268A149
:100BB0001E3002F0B3FA4FF4FA700297CDE9030643
:100BC00005906048CDE900540923012261A12D3030
:100BD00002F0A4FA4FF4D2704FF47F71CDE9030113
:100BE000009505904FF46172CDE901425548092303
:100BF000012259A13C3002F091FA4FF4B9704FF440
:100C00007A71CDE90301009505904FF46672CDE944
:100C100001424C480923012250A14B3002F07EFAD8
:100C20000F20E622CDE9010240F20231CDE90310A6
:100C30000720009043480923012249A15A30FFF7B9
:100C40009BFE052750210297CDE9035145484FF4FB
:100C50004376CDE905604FF018083A48CDE90048E1
:100C60000823012240A16930FFF7C8FD3221029715
:100C70003C48CDE90351001FCDE905603148CDE97D
:100C800000480823012239A19630FFF7B7FD2D490E
:100C90000F225A3115A8FFF7CEFB2A490F224B31FC
:100CA00011A8FFF7C8FB27490F223C310DA8FFF719
:100CB000C2FB24490F222D3109A8FFF7BCFB2149B3
:100CC0000F221E3105A8FFF7B6FB1E490F220F3178
:100CD00001A8FFF7B0FB1B480F228189ADF8001077
:100CE000807B8DF80200174919A8FFF7A4FB19AC07
:100CF000072094E80E0003F0D1F912491D22793142
:100D00006846FFF798FB0F492D22693108A8FFF7C5
:100D100092FB08AC94E80F00FFF7BEFD09491D22C5
:100D2000A6316846FFF787FB06492D22963108A8B1
:100D3000FFF781FB94E80F00FFF7AEFD1EB0BDE8A2
:100D4000F081000014460020303931003039320083
:100D5000303933003039340030393500303936001D
:100D600030393700CA0000203038370030383600BC
:100D7000054C00BFFFF7B6FEA06905F07BFA032023
:100D800004F04AFDF6E700000000002010B558B15D
:100D9000084C491E0BD310F8013B5340DBB234F82A
:100DA000133083EA1222F4E74FF6FF7010BD1046AD
:100DB00010BD0000AC74000810B5054C04E000BF85
:100DC00010F8013B5340E25C491EF9D2104610BDB9
:100DD000AC73000890F82020012A07D0022A05D021
:100DE000416A41F4802141620120704700684269F4
:100DF0000A43426100207047F0B590F82050046823
:100E0000A468012D05D0022D03D0416A41F4802150
:100E10005DE014F0406F01D1E50055D5C4F30164E5
:100E2000022C03D9416A41F4000150E00125A5409C
:100E30001D608D684FF4C0739DB1CE6835434E6818
:100E400045EAC605066803EB0417F5514FF4C27571
:100E5000076805EB04150E697E51097D012905D04F
:100E600009E00E88CD6845EA4655EBE701684E5922
:100E700046F480764E511179D579567941EA05616B
:100E800095792D0445EA062529434FF4C676056871
:100E900006EB0416A9511178D57841EA05619578D9
:100EA00052782D0445EA022211434FF4C4750268BA
:100EB00005EB04155151006803EB0411425842F050
:100EC000010242500020F0BD416A41F4001141622C
:100ED0000120F0BD10B590F82020012A07D0022A89
:100EE00005D0416A41F480214162012010BD3B4898
:100EF000D0F8002242F00102C0F80022D0F800220F
:100F000022F47C52C0F80022D0F800224B6A42EA58
:100F10000322C0F800220A7D02F01F0301229A403A
:100F2000D0F81C329343C0F81C32CB69B3B9D0F867
:100F30000C329343C0F80C328C894B6864F31F4326
:100F40004C6900EBC404C4F840320C890B6864F3AC
:100F50001F434C6900EBC404C4F84432CB69012B35
:100F600016D1D0F80C321343C0F80C320C884B6801
:100F700064F31F434C6900EBC404C4F840320C898D
:100F8000CB6864F31F434C6900EBC404C4F84432DB
:100F90008B69002BD0F804320ED01343C0F8043212
:100FA0000B69002BD0F8143208D01343C0F8143268
:100FB000096A012904D008E09343EFE79343F5E77A
:100FC000D0F81C121143C0F81C12D0F8001221F006
:100FD0000101C0F80012002010BD000000640040B4
:100FE000704730B590F82040012C05D0022C03D07A
:100FF000416A41F480215DE00468002955D02469EC
:10100000A40754D04FF4D874056804EB01142D598B
:1010100015F00405956005682D594ED0ED08556012
:1010200005682C5904F00204D4604FF4DA740568A2
:1010300004EB01142D5905F00F05156105682D59B4
:10104000C5F30725956105682C59240C54614FF4AC
:10105000DC72046802EB0112A4581C700468A458E6
:10106000240A5C700468A458240C9C700468A2587C
:10107000120EDA704FF4DE72046802EB0112A4580B
:101080001C710468A458240A5C710468A458240CD8
:101090009C710468A258120EDA71006881B101696E
:1010A00041F020010161002030BDE468A8E7416AF9
:1010B00041F400114162012030BD6D0D1560AFE7B4
:1010C000C16841F02001C160EDE72DE9F05F054600
:1010D000006800244669D0F804908768D0F80CB006
:1010E000D0F810A0D0F81880F10748D0F90714D034
:1010F00001218160B80703D5284600F098FA0CE07A
:10110000780702D54FF4006407E0380702D54FF4A2
:10111000805402E0284600F089FAF80516D52968BF
:101120004FF480708860B80503D5284600F081FA36
:101130000CE0780502D544F4005407E0380502D5E8
:1011400044F4804402E0284600F072FAF80316D511
:1011500029684FF480308860B80303D5284600F032
:101160006AFA0CE0780302D544F4004407E038033F
:1011700002D544F4803402E0284600F05BFA3007E0
:1011800007D55FEACB6004D52968102044F40074C9
:10119000C86070074FF0080707D55FEA0B7004D5E9
:1011A0002868C760284600F09BF9B00706D5286874
:1011B000C068800702D0284600F094F9700607D571
:1011C0005FEACA6004D52968102044F4806408618D
:1011D000B00607D55FEA0A7004D52868076128467B
:1011E00000F0F4F9F00606D528680069800702D0FF
:1011F000284600F0ECF9B00308D55FEAC96005D5D0
:10120000296810204860284600F0E2F9F00307D56D
:101210005FEA097004D528684760284600F00CFA98
:10122000300446D55FEA497040D5F00504D55FEA41
:10123000C87001D044F00104B00504D55FEA88709D
:1012400001D544F00204700504D55FEA487001D569
:1012500044F00404300529D518F0700F26D008F0AA
:101260007000402815D006DC102809D020280AD0AC
:10127000302816D10AE050280ED0602811D10EE097
:1012800044F008040DE044F010040AE044F02004A7
:1012900007E044F0400404E044F0800401E044F43A
:1012A00080742868816921F07001816129680420B7
:1012B0004860002C05D0686A204368622846FFF722
:1012C0008FFEBDE8F09F70B5040003D094F82000B5
:1012D00010B104E0012070BD204600F081F82068C4
:1012E000016841F00101016000F07EFC0546052621
:1012F00004E000F079FC401B0A2811D820684068FF
:10130000C007F6D02068016821F00201016000F0FA
:101310006BFC05460BE000F067FC401B0A2806D971
:10132000606A40F40030606284F82060D2E7206890
:1013300040688007EFD4207E0128206801683DD0F6
:1013400021F080010160607E01282068016838D0AA
:1013500021F040010160A07E01282068016833D09F
:1013600021F020010160E07E0128206801682ED074
:1013700041F010010160207F01282068016829D018
:1013800021F008010160607F01282068016824D0F5
:1013900021F004010160D4E902010843D4E90412F8
:1013A000114308436168491E08432168C861002051
:1013B0006062012084F82000002070BD41F08001AF
:1013C000C0E741F04001C5E741F02001CAE721F044
:1013D0001001CFE741F00801D4E741F00401D9E75B
:1013E000F0B587B0044614216846FFF7BDF8374BC7
:1013F0003748DFF8D4E01968D4F800C0344A022531
:101400000326092710300024491CF44524D1196013
:10141000012907D1016841F000710160006800F006
:1014200000700590106840F001001060106802AB79
:1014300000F0010005904FF4C050CDE9000583E8AD
:10144000D0006946234800F0D7FA00220721142073
:1014500000F068FC142033E0DFF87CE0F44531D183
:10146000D0F800C04CF0806CC0F800C0D0F800C0CC
:1014700001290CF0806CCDF814C0196007D1016807
:1014800041F000710160006800F000700590106884
:1014900040F002001060106802AB00F002000590FE
:1014A0004FF44050CDE9000583E8D00069460B4871
:1014B00000F0A2FA00220721402000F033FC402077
:1014C00000F022FC07B0F0BD006400401C000020CA
:1014D0003038024000000240006800400004024032
:1014E0007047000010B50446006832498AB088424F
:1014F00036D16B4602AA00212F48FFF772FD0298F1
:10150000B0F5017F1DD008DCA0F5007001380DD0CA
:1015100001280ED0022823D10FE0A0F50070053875
:1015200013D0A0F5806061381AD115E069462348D0
:101530000EE02248694614300BE0204869461E3010
:1015400007E01E486946283003E01C4869463230EF
:101550000A3003F0EDFF03E06946194803F050FC40
:101560001849206888421DD16B4602AA00211648FE
:10157000FFF737FD0298A0F5007001380DD0012863
:1015800012D0052805D006280CD10C4869466E30CB
:1015900006E00A486946323009E0084869465A3090
:1015A00003F0C6FF0AB010BD04486946503014303D
:1015B000F6E7000000640040940300207C47002010
:1015C000FA00002000680040BC030020704770470C
:1015D0007047000070B5044690F82000012804D040
:1015E000606A40F40020606218E0022084F8200065
:1015F0002068016821F00101016000F0F5FA05465C
:101600000EE000BF00F0F0FA401B0A2808D9606A1B
:1016100040F400306062052084F82000012070BD95
:1016200020684068C007EDD1606270BD70477047A8
:10163000704770477047704770472DE9F041044686
:10164000876D00F0D1FA064694F83500002502288F
:1016500006D08020606584F834500120BDE8F08118
:101660002068016821F0160101602068416921F0BD
:1016700080014161206C08B9A06C20B1206801682C
:1016800021F0080101602068016821F0010101607A
:101690000CE000F0A9FA801B052807D9202060651E
:1016A000032084F8350084F83450D7E720680068B8
:1016B000C007EED194F85C103F208840B86001204C
:1016C00084F8350084F834500020C7E790F83510CE
:1016D000022903D08021416501207047052180F84F
:1016E00035100068016821F0010101600020704799
:1016F0002DE9F84304464FF00009CDF80090634807
:101700004FF41651A56D0068B0FBF1F72E6894F800
:101710005C10082000FA01F131420FD021680A68FC
:1017200052070BD50A6822F004020A6094F85C1094
:101730008840A860606D40F00100606594F85C101E
:101740004FF0010808FA01F0304208D021684969D9
:10175000090604D5A860606D40F00200606594F849
:101760005C1004208840304208D02168096889074D
:1017700004D5A860606D40F00400606594F85C10CA
:1017800010208840304218D021680968090714D514
:10179000A86020680168490304D50068000308D5E3
:1017A000A16C07E00168C90503D4016821F00801B4
:1017B0000160216C09B12046884794F85C10202014
:1017C0008840304231D021680968C9062DD5A8600B
:1017D00094F8350005282068016806D0490347D5EC
:1017E000006800031DD4616C1CE021F0160101604B
:1017F0002068416921F080014161206C08B9A06C2A
:1018000020B12068016821F00801016094F85C10A3
:101810003F208840A86084F8358084F83490216D9A
:101820001FE0E16B09B120468847606D00282BD08E
:10183000606DC00714D0052084F835002068016869
:1018400021F0010101600098401C0090B84203D8CB
:1018500020680068C007F6D184F8358084F8349099
:10186000E16C002910D001B02046BDE8F0430847E4
:101870000168C905D5D4016821F01001016084F820
:10188000358084F83490CCE7BDE8F8833000002040
:101890002DE9F041044600F0A7F906465CB10220AC
:1018A00084F83500002584F834502068016821F060
:1018B000010101600DE00120BDE8F08100F094F924
:1018C000801B052805D920206065032084F8350099
:1018D000F2E720680068C007F0D12268116820484C
:1018E0000140D4E901031843D4E9033633431843D4
:1018F00063691843A3691843E3691843236A1843CB
:101900000843616A042903D1D4E90B13194308433E
:10191000106020684069666A20F0070130460E4377
:10192000012704280CD1A06A0643E06A40B1204692
:10193000FFF788F820B14020606584F83570BAE779
:10194000206846612046FFF769F894F85C203F2143
:1019500091408160656584F835700020ACE7000037
:101960003F8010F02DE9F0410446866D90F8340078
:10197000002501280DD0012084F8340094F835703A
:101980000020012F07D084F8340002252846BDE846
:10199000F0810220FBE7022784F83570606520465D
:1019A000FFF77AF894F85C103F208840B060206818
:1019B000016841F016010160206C20B120680168C7
:1019C00041F0080101602068016841F001010160F7
:1019D000DCE7000070B5044600F006F90546601C1F
:1019E00002D004480078044400F0FEF8401BA042F6
:1019F000FAD370BD240000202DE9F84FDFF8BCA118
:101A00000022012503264FF00F090AF1040BAAF169
:101A1000040E00BF0B6805FA02F42340A34270D104
:101A20000F7907F00307012F01D0022F16D1876825
:101A30004FEA420806FA08FC27EA0C07D1F80CC066
:101A40000CFA08FC4CEA070CC0F808C04768A7432A
:101A50000C79C4F3001494403C4344600C79E44393
:101A6000A4070AD0C4684FEA420C06FA0CF7BC433C
:101A70008F6807FA0CF72743C7600C7904F003045A
:101A8000022C12D1D40800EB840CDCF8204057075C
:101A9000FF0E09FA07F824EA0804D1F8108008FAC2
:101AA00007F848EA0408CCF8208004684FEA420CA2
:101AB00006FA0CF7BC430F7907F0030707FA0CF797
:101AC000274307604C6814F4403F70D03C4C2768B3
:101AD00047F480472760246822F0030704F4804419
:101AE0000094384C07EB040CDCF8084897074FEAE1
:101AF000177809FA08F7BC43334FB84202D10027E0
:101B000024E054E0314FB84201D101271EE0304FAC
:101B1000B84201D1022719E02E4FB84201D1032764
:101B200014E02D4FB84201D104270FE02B4FB842EB
:101B300001D105270AE02A4FB84201D1062705E066
:101B4000284FB84201D1072700E0082707FA08F715
:101B50002743CCF80878DAF800405746D1F804C09B
:101B60009C435FEACC2C00D51C433C60DBF8004072
:101B70005F46D1F804C09C435FEA8C2C00D51C431F
:101B80003C60DEF800407746D1F804C09C435FEA31
:101B90008C3C00D51C433C60084F083F3C68D1F8A2
:101BA00004C09C435FEACC3C00D51C433C60521C03
:101BB000102AFFF42FAFBDE8F88F0000083C014069
:101BC000443802400030014000000240000402405E
:101BD00000080240000C02400010024000140240C5
:101BE00000180240001C0240014880687047000055
:101BF0002400002002488168027811448160704707
:101C0000240000200B4810B5016841F40071016008
:101C1000016841F480610160016841F480710160F4
:101C2000032000F09FF80F2000F006F800F050F8B5
:101C3000002010BD003C024030B505461F4887B06B
:101C40000024016841F480710160006806A900F475
:101C50008070009001A800F031F90498A8B100F05C
:101C60004DF940001649174AB0FBF1F11648491EDC
:101C7000026040F2E732C0E90324C0E90114846144
:101C800000F08EFB040003D015E000F037F9E9E71F
:101C90000D4800F0CFFB04000DD12D2000F034F8EA
:101CA000102D07D2002229462D2000F03BF80748CE
:101CB000056000E0012407B0204630BD40380240F6
:101CC00040420F00002000400007002028000020B4
:101CD0000C4882B0016841F480410160006800F462
:101CE000804000900748001F016841F0805101606A
:101CF0000068002200F0805000900F21901E02B07A
:101D000000F010B844380240002809DB00F01F0240
:101D1000012191404009800000F1E020C0F800114D
:101D200070470000F0B40E4B1B680C46C3F302234F
:101D3000C3F10705042D00D90425191D072901D277
:101D4000002300E0DB1E012606FA05F1491E2140B2
:101D500099409E40761E16403143F0BC02F061BBB4
:101D60000CED00E0064900F0070208684FF6FF039B
:101D7000184040EA0220034A104308607047000000
:101D80000CED00E00000FA052DE9F0470E460500D5
:101D900065D0DFF81481D8F80000F7B200F0070032
:101DA000B04207D288F80070D8F8000000F00700B1
:101DB000B04254D128683D4C810712D5400703D565
:101DC000206840F4E05020602878000703D52068A0
:101DD00040F4604020602068A96820F0F0000843CB
:101DE00020602878C0072DD030496868083901285C
:101DF00012D0022813D0032811D0096889070029BE
:101E00002DDA216821F0030101432160FFF7ECFE88
:101E1000814641F2883A0EE009688903EFE70968D4
:101E20008901ECE7FFF7E0FEA0EB0901514502D97B
:101E30000320BDE8F0872068696800F00C00B0EB73
:101E4000810FEFD1D8F80010404601F00701B142F0
:101E500007D90770006800F00700B04201D00120E8
:101E6000E7E72878400705D52068E96820F4E050C6
:101E7000084320602878000706D52068296920F4E7
:101E8000604040EAC100206000F058F82168084A2C
:101E9000C1F30311515CC840064908600648006858
:101EA000FFF7CAFE0020C4E7003C024008380240A9
:101EB0009473000830000020280000200F220260E8
:101EC0000C4A136803F003034360136803F0F00344
:101ED0008360136803F4E053C36012684FF4E05367
:101EE00003EAD20202610448006800F007000860BB
:101EF0007047000008380240003C02400448054991
:101F000000680968044AC1F38221515CC8407047E7
:101F10003000002008380240A47300080448054936
:101F200000680968044AC1F34231515CC8407047F7
:101F30003000002008380240A4730008154810B58E
:101F4000006810F00C02144813D01449042A0FD072
:101F5000082A0ED10F4C241F2268236802F03F028A
:101F60005B0207D52068C0F38810A0FB010106E0E2
:101F7000084610BD2168C1F38811A1FB00010023B0
:101F8000FEF7E2F92168C1F30141491C4900B0FBA9
:101F9000F1F010BD083802400024F40040787D01C3
:101FA0002DE9F84F04006ED02078DFF84C93C0077D
:101FB000A9F104054AD009F104000168C1F38101C7
:101FC000012908D00068C0F3810002280AD1D9F89D
:101FD0000000400206D52868800337D560680028D5
:101FE000E1D033E06068B0F5803F10D0B0F5A02FAD
:101FF000286810D020F480302860286820F48020E1
:1020000028606068A8B1FFF7EFFD06460DE028687C
:1020100040F48030F4E740F480202860F7E700BF08
:10202000FFF7E2FD801B642873D828688003F7D58A
:102030000CE0FFF7D9FD064605E000BFFFF7D4FD31
:10204000801B6428F0D828688003F7D42078DFF854
:10205000AC8280074FF0000A3ED5A748001D0168FA
:1020600011F00C0F08D00068C0F3810002280BD1DA
:10207000D9F80000400207D42868800716D5E06828
:10208000012800D112E033E1E068B8B10120C8F8BE
:102090000000FFF7A9FD064605E000BFFFF7A4FD1D
:1020A000801B0228C0D828688007F7D528682169D6
:1020B00020F0F80040EAC10028600DE0C8F800A058
:1020C000FFF792FD064604E0FFF78EFD801B022815
:1020D0001FD828688007F7D42078000722D5864FBC
:1020E00087486169703771B101210160FFF77CFD9C
:1020F000064604E0FFF778FD801B022809D83868FF
:102100008007F7D50EE0C0F800A0FFF76DFD06468A
:1021100005E082E0FFF768FD801B02287DD8386863
:102120008007F7D42078400768D5DFF8CCB10027C6
:102130000BF13C0BDBF80000C0000BD4DBF8001007
:1021400041F08051CBF80010DBF80000012700F0CF
:10215000805000906B4E3068C00510D4306840F459
:1021600080703060FFF740FD009005E0FFF73CFD18
:102170000099401A022850D83068C005F6D55E4E46
:10218000A0686C3601280FD00528306810D020F0E8
:1021900001003060306820F004003060A068B8B101
:1021A000FFF722FD00900FE0306840F00100F4E7F7
:1021B00040F004003060F7E7FFF716FD0099411A80
:1021C00041F28830814266D830688007F4D50EE04D
:1021D000FFF70AFD009007E0FFF706FD0099411A9E
:1021E00041F28830814256D830688007F4D42FB14C
:1021F000DBF8001021F08051CBF80010A069C8B3C3
:102200003D49091D0968C1F3810102294AD002280C
:10221000504607D0C8F8600000E03CE0FFF7E4FC5F
:1022200004463BE04746C8F86000FFF7DDFC064681
:1022300005E000BFFFF7D8FC801B02282BD82868D8
:102240008001F7D4D4E907010843A16A2E4A49085E
:1022500002EB0141626A41EA8211084394F82C10B2
:1022600040EA0161C9F8001001203866FFF7BCFCA4
:10227000044606E03EE000BFFFF7B6FC001B022864
:1022800009D828688001F7D534E000BFFFF7ACFC1F
:10229000001B022802D90320BDE8F88F28688001BE
:1022A000F4D427E00128F7D0D9F80000E26900F45F
:1022B000800191421CD1226A00F03F01914217D166
:1022C00047F6C071626A0140B1EB821F10D1A26A69
:1022D0004FF0FF3300F4403103EB5202B1EB024FF9
:1022E00006D194F82C1000F07060B0EB016F01D0B3
:1022F0000120D1E70020CFE7043802400000474228
:10230000800E4742007000400000FFFF704770479A
:1023100070B590F83C20012A32D0012480F83C406E
:10232000022280F83D2003685A689D6822F07006FA
:102330000A6832435A60134B02689A4214D0B2F1D1
:10234000804F11D0104B9A420ED0104B9A420BD0B6
:102350000F4B9A4208D00F4B9A4205D00E4B9A422F
:1023600002D00E4B9A4204D1496825F080031943EC
:10237000916080F83D40002180F83C10084670BD17
:10238000022070BD00000140000400400008004031
:10239000000C0040000401400040014000180040D3
:1023A00010B5040003D094F83D0010B107E00120FF
:1023B00010BD002084F83C00204600F01FF80220E9
:1023C00084F83D00211D206801F06EFB012084F897
:1023D000460084F83E0084F83F0084F8400084F80A
:1023E000410084F8420084F8430084F8440084F8F3
:1023F000450084F83D00002010BD000008B50068CD
:10240000B0F1804F12D10A48016841F0010101602A
:102410000068002200F00100009005211C20FFF759
:1024200081FCBDE808401C20FFF76EBC08BD000021
:102430004038024090F83D10012901D0012070473A
:10244000022180F83D100168CA6842F00102CA60AA
:1024500000681149884214D0B0F1804F11D00F4963
:1024600088420ED00E4988420BD00E49884208D0CF
:102470000D49884205D00D49884202D00C49884256
:1024800004D1816801F00701062903D0016841F0F9
:10249000010101600020704700000140000400407D
:1024A00000080040000C00400004014000400140D2
:1024B0000018004070B5044690F83C000025012843
:1024C00017D0012684F83C60022084F83D00206883
:1024D000826822F0770222F47F42826008685028E6
:1024E00038D00DDC20284FD005DC90B3102811D156
:1024F0004AE0022070BD302846D040280AD13BE097
:1025000060282FD070280DD0B0F5805F03D0B0F5D3
:10251000005F12D0012584F83D60002084F83C0063
:10252000284670BDCB68D1E90121206801F020FB6D
:102530002068816841F0770109E0CB68D1E9012189
:10254000206801F015FB2068816841F480418160BA
:10255000E1E719E0CA684968206801F01BFB5021D7
:10256000206806E0CA684968206801F024FB602101
:10257000206801F007FBCEE7CA684968206801F0CF
:1025800009FB40212068F4E7226801461046F0E785
:10259000704770B50446006801694FF00005C943F3
:1025A000890715D4C168C943890711D4E91E01619F
:1025B00001202077206880698007204602D0FFF73D
:1025C000E7FF04E000F098F8204600F096F8257741
:1025D00020680169C943490717D4C168C94349073D
:1025E00013D46FF004010161022020772068806914
:1025F00010F4407F204602D0FFF7CAFF04E000F04D
:102600007BF8204600F079F8257720680169C943F6
:10261000090716D4C168C943090712D46FF008012D
:102620000161042020772068C0698007204602D01D
:10263000FFF7AEFF04E000F05FF8204600F05DF821
:10264000257720680169C943C90617D4C168C94301
:10265000C90613D46FF010010161082020772068AB
:10266000C06910F4407F204602D0FFF791FF04E0DC
:1026700000F042F8204600F040F825772068016914
:10268000C943C90708D1C168C943C90704D1891E14
:102690000161204600F032F820680169C94309064B
:1026A00009D4C168C943090605D46FF080010161EE
:1026B0002046FFF72BFE20680169C943490609D46B
:1026C000C168C943490605D46FF040010161204645
:1026D00000F02AF820680169C94389060BD4C16853
:1026E000C943890607D46FF0200101612046BDE887
:1026F0007040FFF70CBE70BD7047704710B50446C0
:102700000068B0F1804F04D103F02CF86420FDF78D
:10271000D7FF04492068884203D1BDE81040FFF785
:1027200069BA10BD002000407047704718B590F896
:102730003C10012907D0012180F83C1090F83D1091
:10274000212902D00BE0022018BD0168143151E8A4
:10275000002F42F0800241E80023002BF5D190F8D1
:102760003E100023222923D101680A68496800919C
:10277000016949B101680C3151E8002F42F48072BF
:1027800041E80024002CF5D10168143151E8002FF4
:1027900042F0010241E80024002CF5D10168143117
:1027A00051E8002F42F0400241E80024002CF5D10E
:1027B00080F83C30002018BD10B504460068406920
:1027C00094F83D10C0F3C010212911D180B12068C8
:1027D000143050E8001F21F0800140E80012002A68
:1027E000F5D1606B08B1FEF728FF204601F0DCFA56
:1027F0002068406994F83E10C0F38010222911D15E
:1028000080B12068143050E8001F21F0400140E8FA
:102810000012002AF5D1A06B08B1FEF70EFF20468A
:1028200001F09BFA002010BD70470000F8B5016868
:1028300004460868CA684B6910F00F0F4FF0000596
:1028400059D003F0010602F49077374365D0C107F1
:1028500005D0D10503D5216C41F001012164410768
:1028600005D5D90703D0216C41F00201216481070D
:1028700005D5D90703D0216C41F00401216401077B
:1028800007D502F02001314303D0216C41F008014B
:102890002164216C00293AD0800604D5900602D527
:1028A000204601F08FFA20684069216CC0F3801047
:1028B000090700D460B3204601F04FFA2068406950
:1028C000400621D52068143050E8001F21F0400157
:1028D00040E80012002AF5D1A06BA8B16C4901654F
:1028E000A06BFEF7F3FE002811D0A06B016D01B0C4
:1028F000BDE8F040084783060FD593060DD5204666
:10290000BDE8F84001F05EBA2046FFF78DFFF8BD44
:102910002046FFF789FF2564F8BD266B2023012E92
:1029200079D1C60677D5D60675D50868486800906F
:102930004869400640D5A16B086840680004000C57
:10294000EAD0A28D8242E7D9E085C869B0F5807FE0
:102950002DD020680C3050E8001F21F4807140E831
:102960000012002AF5D12068143050E8001F21F031
:10297000010140E80012002AF5D12068143050E827
:10298000001F21F0400140E80012002AF5D184F830
:102990003E30256320680C3050E8001F21F0100104
:1029A00040E80012002AF5D1A06BFEF746FEA08D8C
:1029B000E18D401A81B229E0A08DE18D401A81B2EB
:1029C000E08D0028A8D00029A6D020680C3050E85F
:1029D000002F22F4907240E80026002EF5D12068E6
:1029E000143050E8002F22F0010240E80026002EAB
:1029F000F5D184F83E30256320680C3050E8002F74
:102A000022F0100240E80023002BF5D12046FFF70A
:102A10008CFEF8BDFFE705062BD5150629D594F8E1
:102A20003D002128F5D1A068B0F5805F01D1206973
:102A3000B0B1206A411C2162216800784860E08CB6
:102A4000401E0004000CE084E3D12068C16821F03E
:102A50008001C1602068C16841F04001C160D8E7D1
:102A6000206A0088C0F308004860206A801C206249
:102A7000E5E74006CDD55006CBD5CA68204622F002
:102A80004002CA6084F83D3000F077FAC1E70000E8
:102A9000653C000870B5040004D094F83D000025A2
:102AA00010B106E0012070BD84F83C50204600F0D3
:102AB00023F8242084F83D002068C16821F40051E7
:102AC000C160204601F0DEF92068016921F49041DF
:102AD00001612068416921F02A0141612068C168D3
:102AE00041F40051C1602564202084F83D0084F841
:102AF0003E00002070BD00002DE9F04F87B0044675
:102B000014216846FDF730FDA749A748A54B226868
:102B100010380327DFF894C200254E054FF0020855
:102B20004FF008094FF4806A9A4234D10A6842F49F
:102B300000220A60096801F400210591016841F052
:102B4000010101600068CDE9007800F00100CDE9E5
:102B50000490CDE9025769466046FEF74DFF954F58
:102B600093483860C7E90165C7E9035A80157D615C
:102B7000C7E906503D6238467D62FEF789FE08B11E
:102B8000FDF7A8FFA763002206213420BC63FFF7EE
:102B9000C9F8342034E0884B9A4236D10A6842F4AE
:102BA00080120A60096801F480110591016841F002
:102BB00004010160016801F004010591016841F020
:102BC00008010160006802AA00F00800059098144E
:102BD000CDE9000882E8A00269467848FEF70CFFBC
:102BE0000420CDE9000802AA694682E8A0027448E0
:102BF000FEF702FF002206213520FFF793F835206B
:102C0000FFF782F807B0BDE8F08F6E4BDFF898B1A0
:102C10004FF0070E0BF1040B9A4260D1DBF8002055
:102C200042F01002CBF80020DBF8001001F0100198
:102C30000591016841F001010160006802AA00F0FD
:102C4000010005904FF4C060CDE9000882E8A04083
:102C500069466046FEF7D0FEDFF858815A4908F110
:102C600060084046C8F80010C0E90165C0E9035A91
:102C70008F15C8F81450C0E90657B146C8F820505F
:102C80005646C8F82450FEF703FE08B1FDF722FFB0
:102C9000C4F83880C8F83840DFF818814A4908F18C
:102CA000C00840467831E0E80219402162C040F88F
:102CB0001459C0E9065705624046C8F82450FEF78B
:102CC000E7FD08B1FDF706FFC4F8348000220721B4
:102CD0002520C8F83840FFF725F8252090E73B4B22
:102CE0009A4237D10A6842F400320A60096801F456
:102CF00000310591016841F001010160006802AAFC
:102D000000F0010005900C20CDE9000882E8A04009
:102D100069466046FEF770FE25482D4F4830386002
:102D2000C7E90165C7E9035A7D614FF44030BD61D1
:102D3000C7E9075038467D62FEF7AAFD08B1FDF7E6
:102D4000C9FEA763002206212620BC63FEF7EAFF26
:102D5000262055E71F498A427FF454AFDBF8002054
:102D600042F02002CBF80020DBF8001001F0200137
:102D70000591016841F004010160006802AA00F0B9
:102D800004000590C020CDE9000882E8A002694651
:102D90000A48FEF731FE00220F214720FEF7C2FF4E
:102DA00047202DE7004C0040403802400000024020
:102DB00040600240800500200050004000080240B2
:102DC000000C0240001001404064024000440040FA
:102DD000A0060020001401402DE9F84F044690F8A9
:102DE0003E009A4616460D46202853D1FDB1F6B155
:102DF00094F83C0001284DD0012084F83C000027C5
:102E00002764222084F83E002763FEF7EDFEA685A6
:102E10008146E685A0684FF48058404501D120697D
:102E200040B12E465FF0000584F83C7027E0012099
:102E3000BDE8F88F0026F7E74B4600222021204608
:102E4000CDF800A001F0EEF808B10320F0E726B1BC
:102E5000A06840451BD038B108E020684068C0F346
:102E6000080025F8020B07E0206980B1206840685F
:102E700000F07F0006F8010BE08D401EE085E08D3C
:102E80000028D9D1202084F83E000020D0E7206817
:102E90004068EFE70220CBE790F83E30202B0ED1C0
:102EA00059B152B190F83C30012B08D0012380F881
:102EB0003C300023036301F06BB80120704702200F
:102EC00070477047704700002DE9F843044690F8BA
:102ED0003D001F4616460D4620284CD1C5B1BEB157
:102EE00094F83C00012846D0012084F83C004FF0C3
:102EF0000008C4F84080212084F83D00FEF774FEED
:102F0000A6848146E684A068B0F5805F03D004E023
:102F10000120BDE8F883206928B12E465FF0000546
:102F200084F83C800EE00026FAE78021204601F07C
:102F300079F8A0B9AEB116F8010B21684860E08CB1
:102F4000401EE084E08C4B464FF0000200970028C2
:102F5000EBD14FF04001204601F064F830B103207E
:102F6000D7E735F8020BC0F30800E6E7202084F825
:102F70003D000020CDE70220CBE77047FEE70000D0
:102F800070B5644D04460068286020792871207867
:102F9000A5286ED10521204601F004FA01283FD171
:102FA00061782046093101F0DFF9002838D0B4F803
:102FB000050040F20122A0F20121904263D016DC0C
:102FC00005283ED008DC01281CD0022829D003287F
:102FD0002AD0042824D12CE0A0F5807001383ED0FE
:102FE000012841D0032845D0042819D147E0494899
:102FF00080300A2914D2DFE801F0804B50575A5D27
:1030000060697176D4F80700C5F80500D4F80B00A4
:10301000C5F80900B4F80F00A5F80D00607CE8734E
:103020006BE0E079287468E03A482022E11D113015
:1030300037E0B4F80700A5F83500607A85F8370066
:103040005BE0D4F80700A863D4F80B00E863B4F899
:103050000F00A5F84000607C85F842004DE0D4F8F0
:103060000700C5F8430048E0D4F80700C5F847005A
:1030700043E04BE0B4F80700A5F84B003DE0E079F1
:1030800085F84D0039E023481B22E11D4E3008E051
:1030900020481022E11D693003E01E481022E11D86
:1030A0007930FDF7C8F928E0E179417225E0E1794E
:1030B000817222E0E179C1721FE0D4F80710C1608B
:1030C000B4F80B100182617B817416E0D4F807100C
:1030D00040F8131FB4F80B1081800EE0D4F80710ED
:1030E000C0F8191009E0D4F8071040F81D1FD4F8F3
:1030F0000B104160D4F80F108160B5F8010009345D
:10310000015DA52902D12044FFF73AFF02490020C2
:10311000087070BDCC440020C40000202DE9F04FA1
:1031200009ACDDE90C6594E880060024DDF838B0D0
:1031300007E000BFC4F10208641C00F808C0032CBB
:1031400004DA11F804C0BCF1000FF3D110F8031F2A
:1031500062F302010170018863F3891101804178F3
:1031600067F385014170828869F309028280B0F8B3
:1031700005206AF38C02A0F80520C18866F34F1180
:10318000C180B0F8091065F38C01A0F809104289DC
:103190006BF34F124281BDE8F08F0000104810B56C
:1031A0000E4901600321416000214FF4002281603B
:1031B000C0E903124FF440124261017601224276C7
:1031C0008176C17601774277FEF77DF8002803D03B
:1031D000BDE81040FDF77EBC10BD0000006400405B
:1031E00094030020104810B50E490160032141608E
:1031F00000214FF400228160C0E903124FF4401215
:1032000042610176012242768176C176017742776A
:10321000FEF759F8002803D0BDE81040FDF75ABC6E
:1032200010BD000000680040BC030020194808B52C
:10323000016841F480010160016801F4800100919E
:10324000016841F4001101600068002200F40010E0
:10325000009005210D20FEF765FD0D20FEF754FDC1
:10326000002205211020FEF75DFD1020FEF74CFD29
:10327000002205213A20FEF755FD3A20FEF744FDD5
:10328000002205214620FEF74DFDBDE808404620FE
:10329000FEF73ABD3038024010B5B2B01C222749C3
:1032A0006846FDF70DF90021684602F0C1FA244C8A
:1032B00022491C2220601C3107A8FDF701F90021DA
:1032C00007A802F0B5FA1D4960601C2238310EA82B
:1032D000FDF7F6F800210EA802F0AAFA1749A0603F
:1032E0001C22543115A8FDF7EBF8002115A802F0B7
:1032F0009FFA1249E0601C2270311CA8FDF7E0F82B
:1033000000211CA802F094FA0C4920611C228C3187
:1033100023A8FDF7D5F8002123A802F089FA074970
:1033200060611C22A8312AA8FDF7CAF800212AA84A
:1033300002F07EFAA06132B010BD0000C872000831
:1033400000000020154808B5016841F080010160C7
:10335000016801F080010091016841F00101016004
:10336000016801F001010091016841F00201016072
:10337000016801F002010091016841F0040101605F
:10338000016801F004010091016841F00801016049
:10339000006800F00800009008BD000030380240CE
:1033A00010B586B00024164800940194029403944A
:1033B00004944FF08041059401605321C0E9011449
:1033C00040F6B731C0E903148461FEF7E9FF08B1A4
:1033D000FDF780FB4FF48050009069460848FFF7E6
:1033E00069F808B1FDF776FB049404A90448059434
:1033F000FEF78EFF002801D0FDF76CFB06B010BD74
:10340000E40300200C4810B50A4901604FF4E13193
:103410004160002181600C22C160C0E90412816119
:10342000C161FFF737FB002803D0BDE81040FDF76E
:1034300051BB10BD004C00402C0400200C4810B5BE
:103440000A4901604FF461214160002181600C2232
:10345000C160C0E904128161C161FFF71BFB002854
:1034600003D0BDE81040FDF735BB10BD0050004053
:10347000700400200C4810B50A4901604FF4E13196
:103480004160002181600C22C160C0E904128161A9
:10349000C161FFF7FFFA002803D0BDE81040FDF737
:1034A00019BB10BD00100140B40400200E4810B537
:1034B0000C4901600D4941604FF480518160002149
:1034C0004FF48062C0E903120422C0E90521C16102
:1034D000FFF7E0FA002803D0BDE81040FDF7FABA84
:1034E00010BD000000440040F8040020A086010048
:1034F0000C4810B50A4901604FF4E13141600021E8
:1035000081600C22C160C0E904128161C161FFF7D2
:10351000C1FA002803D0BDE81040FDF7DBBA10BDAA
:10352000001401403C050020FEE700002C49DFEDBF
:103530002D0A2E4AC98B00EE101AB8EE400A20EE72
:10354000200ADFED290A20EE200ABCEEC00A10EEA8
:10355000101A89B20180137813B1418000231370CF
:10356000818042888A1A00EE102AB8EEC00A80EDE7
:10357000020AB5EEC00AF1EE10FA02DD70EE600A42
:1035800001E070EE200AF5EEC00AF1EE10FA02DD5D
:10359000B0EE601A01E0B1EE601AB5EEC00AF1EECD
:1035A00010FA02DDF0EE401A01E0F1EE401AB4EE3E
:1035B000E11AF1EE10FA02D2C0ED030A01E080ED4B
:1035C000030A90ED040AD0ED030AB8EEC00A30EE0B
:1035D000200ABDEEC00A80ED040A41807047000059
:1035E000CC470020000000390000B443B8000020A0
:1035F000FEE7032002F010F9FBE700002DE9F0419F
:103600000024051D484EB0F8847027E0285DC028CE
:103610003BD012DCA52829D008DC902822D0A02895
:1036200024D0A12822D0A22817D11FE0B02825D06D
:10363000B12823D0B22810D120E0D12868D006DCF0
:10364000C12822D0C22820D0D02806D125E0D928F0
:1036500052D0E02865D0F02863D0641CA742D5DCA6
:10366000BDE8F08168783070A41CF7E7281950F89D
:10367000011FC6F802108088F0803BE0281950F83E
:10368000011FB1608088B08134E0281950F8011F13
:10369000C6F80E10808870822CE028194178827854
:1036A00001EB022109B200EE101A2149F8EEC00A1E
:1036B0009FED1E0A80EE801A81ED001AC278037910
:1036C00002EB032212B200EE902AF8EEE00A80EE3E
:1036D000801AF2EE040A81ED011A4279807902EB38
:1036E000002000B200EE100AB8EEC00A80EE201AE8
:1036F00081ED021AE41DB1E70D4829190C3851F883
:10370000012FC2604A68026189680D344161A5E7F2
:103710000748291910220C30491CFCF78CFE113483
:103720009CE7641D9AE70000040100200000C842E5
:10373000144E002090ED0F1A80ED101AD0ED0E1AE5
:10374000C0ED0F1AC0ED050A80ED060A30EEC00A82
:1037500080ED0E0AD0ED000A20EE801A80ED081AE6
:10376000D0ED090A90ED012A42EE000A30EE610A1E
:10377000C0ED090A90ED0C2A80ED0D2A90ED0B2A80
:1037800080ED0C2A80ED0B0AD0ED021A61EE801A52
:10379000C0ED0A1A90ED040AF4EEC00AF1EE10FA38
:1037A00009DCB1EE400AF4EEC00AF1EE10FA02D3E1
:1037B00090ED090A01E080ED090A31EE000A30EED1
:1037C000210A80ED070AD0ED030AB4EEE00AF1EE1B
:1037D00010FA06DCF1EE600AB4EEE00AF1EE10FA3F
:1037E00001D2C0ED070A90ED070A704780EC030A8A
:1037F00000EE101AB8EEC00A80ED030A00EE102A9F
:10380000B8EEC00A80ED040A9FED0B0A80ED0D0AA8
:1038100080ED0C0A80ED0B0A80ED070A80ED0A0AA4
:1038200080ED090A80ED080A80ED100A80ED0F0A8C
:1038300080ED0E0A70470000000000002DE9F04105
:10384000384C014620462778D0E903200623A61DE0
:103850000025072F62D2DFE807F004081A1F272A85
:1038600031005A295BD1012009E080F88810A52990
:1038700004D0A62905D0A72951D105E00220207047
:103880004DE0EAB3904749E00560237047E0A0F8B7
:103890008410B1700320F2E730F8842F42EA01224D
:1038A0000280F1700420EAE761800520E7E7628882
:1038B00042EA012161800560A580E6E70368061DF4
:1038C0005F1C0760995590F88810A72907D10168F7
:1038D000082904D30821A0F8841090472570206996
:1038E000B0F884200168914219D390F88800A52887
:1038F00015D10C490422891D881E01F0EDFD00E060
:103900000CE02169074804C9001D01F0E5FDA0880D
:103910006188884202D1D4E90310884725700020CD
:10392000BDE8F0812C01002070B5044D0446E9602B
:103930008C21FCF719FE2C6170BD00002C010020C9
:1039400030B5144B1C68656945F0400565611B681E
:10395000DC6844F01004DC600F4B1C68256825F01F
:10396000010525601C682568ED07F7D11D680B4C23
:10397000AC601C68E06018680161186842601868F3
:10398000016841F4802101601868016841F001017B
:10399000016030BDF8040020A0060020044400406F
:1039A00002F026FA022001F037FFF9E7022001F0C9
:1039B00033FFFBE710B5502080F31188BFF34F8F22
:1039C000BFF36F8F02F026FE18B104494FF080500C
:1039D0000860002080F3118810BD000004ED00E0B5
:1039E00030B593B030216846FCF7BEFD14210CA819
:1039F000FCF7BAFD1E480024016841F080510160C7
:103A0000006800F0805011901A48016841F480412C
:103A100001600068102100F4804011900A2000909D
:103A20000120CDE903010225CDE905050820CDE9F6
:103A30000740A820CDE9090504200B906846FEF751
:103A4000AFFA08B172B6FEE70F20CDE90C054FF4CE
:103A5000A050CDE90E404FF48050109005210CA8E5
:103A6000FEF792F9002801D072B6FEE713B030BD20
:103A700040380240007000400248016841F4700183
:103A80000160704788ED00E010B50348FEF781FD46
:103A9000BDE8104001F066BEE40300200148FEF7D7
:103AA00078BD000000070020F0B50268254C264DC7
:103AB000264E274F274B4FF0804CA04209D060453F
:103AC00007D0A84205D0B04203D0B84201D09842F6
:103AD00004D122F0700E4A6842EA0E02A0421BD0C6
:103AE000604519D0A84217D0B04215D0B84213D0C3
:103AF000984211D0184DA8420ED0184DA8420BD0B4
:103B0000174DA84208D0174DA84205D0164DA8421F
:103B100002D0164DA84203D122F44075CA682A4348
:103B20004D6922F080022A4302608A68C2620A68F4
:103B30008262A04201D0984201D10969016301214A
:103B40004161F0BD00000140000400400008004059
:103B5000000C0040000401400040014000440140CE
:103B60000048014000180040001C004000200040B8
:103B700010B5846842EA032224F47F440A432243B6
:103B8000826010BD826822F070020A4342F0070191
:103B90008160704710B5036A046A24F0010404626E
:103BA000846924F0F00444EA021423F00A020A4370
:103BB0008461026210BD10B5036A23F01003036232
:103BC0008369046A23F4704343EA023224F0A003B9
:103BD00043EA01118261016210BD000038B510484E
:103BE000FEF724FE0E4C20680168C943C90615D4AF
:103BF0000168406800902046FEF7DEFDA06B00687B
:103C00004068642207492046FFF746F9054802F05C
:103C1000C5FB2046BDE83840FEF788BD38BD000032
:103C20002C040020D400002038B50C48FEF7FEFD1F
:103C30000A4C20680068C04380060DD4642301222A
:103C400007492046FFF7C8F805480078FFF7F6FD5A
:103C5000206801684068009038BD000070040020B2
:103C60002000002010B5806B0021C185C184FEF7C3
:103C7000DBFD10BD70B5846B2068406994F83D1081
:103C8000C0F3C0100025212904D118B1E5842046D5
:103C900000F08AF82068406994F83E10C0F3801064
:103CA000222904D118B1E585204600F056F8206C91
:103CB00040F0100020642046FEF7B6FD70BD10B540
:103CC0000146806B09680968C9052FD40021C185A8
:103CD00001680C3151E8002F22F4807241E8002382
:103CE000002BF5D10168143151E8002F22F00102B8
:103CF00041E80023002BF5D10168143151E8002F71
:103D000022F0400241E80023002BF5D1202180F869
:103D10003E10016B012909D101680C3151E8002FD7
:103D200022F0100241E80023002BF5D1016B01299C
:103D300002D0FFF7C6F810BD818DFEF7F6FC10BD6E
:103D400010B5806B016B012902D0FFF7BBF810BDE5
:103D5000818D4908FEF7E9FC10BD01680C3151E87E
:103D6000002F22F4907241E80023002BF5D1016866
:103D7000143151E8002F22F0010241E80023002B0A
:103D8000F5D1016B012909D101680C3151E8002FEF
:103D900022F0100241E80023002BF5D1202180F809
:103DA0003E1000210163704701680C3151E8002F7B
:103DB00022F0C00241E80023002BF5D1202180F839
:103DC0003D10704708B590F83E10222901D002201E
:103DD00008BD82684FF480539A4201D1016921B134
:103DE000816A9A421BD04AB10AE00268816A52682D
:103DF000C2F308020A80816A891C08E0026972B174
:103E00000268526802F07F020A70816A491C81626E
:103E1000C18D491E0904090CC18503D019E002684F
:103E20005268F1E70168CA6822F02002CA6001689E
:103E3000CA6822F48072CA6001684A6922F00102ED
:103E40004A61202180F83E10016B012903D0FFF761
:103E500038F8002008BD0021016301680C3151E8E9
:103E6000002F22F0100241E80023002BF5D1016859
:103E70000A68D20602D50A6849680091818DFEF76A
:103E800054FCE6E770B5044600680169E26821F475
:103E90004051114301612169A068E26908436169E9
:103EA000114308432168CA6849F20C639A430243EC
:103EB000CA6020684169A26921F4407111434161DF
:103EC00031492068884202D03049884202D1FEF749
:103ED00025F801E0FEF712F8E269002319216425B4
:103EE0003226B2F5004F626828D0A0FB0101930F83
:103EF0009200FCF729FA0146B0FBF5F06FF01802CA
:103F0000504301EB800006EB0010B0FBF5F000F031
:103F1000F002B1FBF5F002EB0012B1FBF5F06FF02F
:103F20001803584301EB800006EB0010B0FBF5F0DE
:103F300000F00F0021681044886070BDA0FB0101F3
:103F400092185B41FCF700FA0146B0FBF5F0020164
:103F5000B1FBF5F06FF01803584301EB800006EB5E
:103F6000C000B0FBF5F000F0F80002EB4002B1FB3E
:103F7000F5F0584301EB800006EBC000B0FBF5F014
:103F800000F00700D6E700000010014000140140D7
:103F900038B58162828500251346044605642220D7
:103FA00084F83E00A26B1C48D063A26B1B481064CF
:103FB000A26B1B48D064A06B0A4605652168A06B04
:103FC000091DFDF7CFFC206801684068009084F867
:103FD0003C50206948B120680C3050E8001F41F483
:103FE000807140E80012002AF5D12068143050E8B2
:103FF000001F41F0010140E80012002AF5D12068BD
:10400000143050E8001F41F0400140E80012002A3F
:10401000F5D1002038BD0000BF3C0008413D00083C
:10402000753C00082DE9F041984617460E460446B7
:10403000069D27E0681C25D02DB1FDF7D5FDA0EB2E
:104040000800A8421ED920680C3050E8001F21F457
:10405000D07140E80012002AF5D12068143050E8F1
:10406000001F21F0010140E80012002AF5D12020B4
:1040700084F83D0084F83E00002084F83C000320D2
:10408000BDE8F0812068006836EA000004D0002016
:10409000B842CFD00020F3E70120F9E70FB44FF684
:1040A000FF702DE9F0418AB0DFF81C81ADF8000007
:1040B000A5208DF80C00109803ACC0EB0010801DFB
:1040C000ADF80D0098F800008DF80F0011ADFF223B
:1040D00004212046FCF770FE8DF8100040F20130FC
:1040E000ADF8110010994FF4827001290CD002290B
:1040F0000DD0052910D0072911D04FF0FF300AB09C
:10410000BDE8F0015DF814FB40F2011101E04FF44D
:104110008171ADF8041004E040F20311F9E7ADF845
:1041200004000421ADF80610ADF80800BDF8002029
:1041300007212046FCF72AFEADF8000001AB02463D
:1041400006211846FCF722FEADF8000003AC00265D
:10415000207800F03BF8641C761C072EF8D301ACE5
:104160000026207800F032F8641C761C062EF8D366
:10417000002716E0284605AC0FC884E80F0010356C
:10418000BDF800200F212046FCF700FEADF800002E
:104190000026207800F01AF8641C761C0F2EF8D345
:1041A0007F1C10988742E5DB6C460025207800F0E4
:1041B0000DF8641C6D1C022DF8D398F80010491CF2
:1041C00088F8001000209AE7C500002001B564239C
:1041D000012269460148FEF777FE08BDB4040020BD
:1041E00038B51248FEF722FB104C20680168C9431D
:1041F000C90619D40168406800902046FEF7DCFA31
:10420000A06B00684068802209492046FEF744FE02
:104210000748FEF7B5FE80210548FCF783F92046E4
:10422000BDE83840FEF782BA38BD0000B404002073
:104230009445002038B52748FEF7F8FA264800686C
:10424000C00645D5234801680A6849680091816B1A
:1042500009680A684FF024031403204A0C6824F00C
:1042600001040C60816B17D409684C68C4F1240404
:10427000A4B254804B60816B09680A6842F4002242
:104280000A60806B0068016841F001010160122C36
:104290001ED11349134817E00C686168C1F124016D
:1042A00089B251806360826B1268136823F4002323
:1042B0001360806B0068026842F0010202601229FC
:1042C00006D1084806492430BDE8384001F018BD41
:1042D00038BD0000F8040020004400402000002009
:1042E00008470020384400200148FEF79FBA00002C
:1042F0003C050020124900B52422A1F12400FFF75B
:104300001FFB10480068C16841F01001C1600E48F1
:104310000068C16841F02001C1600C480068C168B4
:1043200041F01001C1600A480068C16841F02001F5
:10433000C16008480068C16841F02001C16000BD4B
:104340005C440020B4040020F80400202C04002069
:10435000700400203C050020FEE702F05DF8032019
:1043600001F05AFAF9E7000030B50C46050014D008
:10437000022C12D90A48A11E02882846FCF706FD25
:104380002919C2B211F8023C9A4206D111F8011C57
:10439000B1EB102F01D1012030BD002030BD000055
:1043A0000201002030B50C4605000CD0022C0AD9C1
:1043B000FF22611EFCF700FD291911F8011C814242
:1043C00001D1012030BD002030BD41F68B51091ACA
:1043D000B1F5805F02DD00F5005004E011F5805F6B
:1043E00002DAA0F5005000B200EE100AB8EEC00AE2
:1043F000704703B401984100009850EAC12018BFEB
:1044000004204A0D18BF40F0010040F2FF72B2EBE9
:10441000515F08BF40F00200012808BF052002B02C
:1044200070470907090E002804DB00F1E02080F83E
:104430000014704700F00F0000F1E02080F8141D18
:10444000704700000000000010B52F499FED2C1BA5
:104450002DED020B84B0059820F000408842D8BFB3
:104460009DED040B2DDD2949884209D1049840B9FE
:104470004FF00100FCF7A7F800F0A2FC06B010BD59
:1044800005DB9DED040B00F08FFC06B010BD684607
:104490009DED040B00F0A0F810F0030004BF9DEDAB
:1044A000021B9DED000B0CD001280ED09DED021BD0
:1044B0009DED000B022817D0012000F0DDFB06B0B7
:1044C00010BD00F0A5FA06B010BD9DED021B9DEDDC
:1044D000000B012000F0D0FB51EC100B02F0ECF9C6
:1044E00006B041EC100B10BD00F092FA51EC100B2D
:1044F00002F0E2F906B041EC100B10BD0000000024
:104500000000000000000000FB21E93F0000F07FF8
:1045100010B52F499FED2C1B2DED020B84B0059893
:1045200020F000408842DCBF00209DED040B32DD0E
:104530002849884209D1049840B94FF00100FCF79E
:1045400042F800F03DFC06B010BD05DB9DED040B0C
:1045500000F02AFC06B010BD68469DED040B00F08B
:104560003BF810F0030011D0012818D09DED021B7C
:104570009DED000B02281AD000F04AFA51EC100B06
:1045800002F09AF906B041EC100B10BD9DED021B34
:104590009DED000B012000F06FFB06B010BD9DEDFE
:1045A000021B9DED000B00F033FA06B010BD012098
:1045B00000F062FB51EC100B02F07EF906B041EC0A
:1045C000100B10BD00000000000000000000000003
:1045D000FB21E93F0000F07F2DE9F14F04462DED6E
:1045E000020B2DED088B8AB09FEDE70B80ED020BDF
:1045F000139EE74826F0004585420ADC9DED120B2C
:10460000002084ED000B0AB0BDEC088B03B0BDE8C0
:10461000F08FE0489FEDE0AB9FEDE1BBA84247DDA6
:10462000E14F9FEDE39B9FEDE48B9DED120B53EC6F
:104630001A2B51EC100B002E1CDD02F0DFFC41ECBC
:10464000100BBD4208D053EC1B2B51EC100B02F0A9
:10465000D5FCC4E900010BE053EC192B51EC100B15
:1046600002F0CCFC53EC182B02F0C8FCC4E90001AA
:104670000120C8E702F05EF941EC100BBD4208D002
:1046800053EC1B2B51EC100B02F054F9C4E9000160
:104690000BE053EC192B51EC100B02F04BF953ECDF
:1046A000182B02F047F9C4E900014FF0FF30AAE7E8
:1046B000C348A84279DB9DED120B51EC100B00F0C2
:1046C00022FF41EC180B9FEDC00B53EC102B02F0B6
:1046D0008BFB9FEDBF1B53EC112B02F02BF902F06B
:1046E00029FB074602F055FB41EC190B53EC1A2B42
:1046F00002F07AFB53EC182B02F074FC41EC180B1F
:1047000053EC1B2B51EC190B02F06EFBDFF8C8A227
:1047100041EC100B4FEA15580125FA4453EC102BCD
:1047200051EC180B02F06AFC032DC4E900013DD0E6
:10473000C1F30A5005EB4511A8EB00001139814285
:1047400034DA0AEB051BB0EE48AA9BED000BF0EE45
:1047500068AA53EC102B51EC190B02F045FB41EC0D
:104760001B0B51EC1A0B53EC1B2B02F047FC41ECDA
:10477000180B51EC1A0B53EC182B02F03FFC53ECC6
:104780001B2B02F03BFC9BED020B41EC1A0B53EC94
:10479000102B51EC190B02F027FB53EC1A2B02F0F3
:1047A0002DFC41EC100B6D1CB8E70EE0002EA8BFED
:1047B0003846BFF628AF94ED000B51EC100B02F019
:1047C0007BF8C4E9000178421DE7C6F3130040F40A
:1047D000801EC6F30A50A0F2F530471100F01F0505
:1047E000C5F12000DDF848B0089000200690079041
:1047F0000520EC467949002D07EB0002794408BFFB
:1048000051F8221009D051F8223001EB8201AB405F
:104810004A68089922FA01F11943A1FB0E26A1FB6F
:104820000B131A449A4234BF0123002303EB0608FA
:104830000CEB8003D3E901A60E448E4234BF012164
:10484000002192448A4411B1924502D903E0924575
:1048500001D2012100E00021C3E901A641444CF846
:104860002010011EA0F10100C4DC029800F10050EC
:10487000850F0298DDE903678000DDF8148002F0FF
:1048800088FA41EC1A0B304602F09AFA9FED541B5D
:1048900053EC112B02F0A8FA41EC1B0B384602F046
:1048A0008FFA9FED511B53EC112B02F09DFA41EC56
:1048B000180B404602F084FA9FED4D1B53EC112B70
:1048C00002F092FA41EC190B51EC180B53EC192B36
:1048D00002F030F853EC1B2B02F02CF853EC1A2B9F
:1048E00002F028F8CDE90801002008909DED080BA2
:1048F00053EC1A2B51EC100B02F080FB53EC1B2BEA
:1049000002F07CFB53EC182B02F078FB53EC192BD4
:1049100002F068FB9FED381B53EC112B02F064FA98
:104920009FED370B41EC180B53EC102B9DED080B52
:1049300051EC100B02F058FA53EC182B01F0FAFF6F
:104940009FED310B41EC180B53EC102B9DED080B38
:1049500051EC100B02F048FA53EC182B01F0EAFF6F
:1049600041EC100B139810F0004F06D06D4251EC43
:10497000100B01F0A1FF41EC100B284684ED000B59
:1049800041E6000000000000000000000000000000
:10499000FB21E93F7CD9024000004054FB21F93F54
:1049A0003163621A61B4D03DFB21F93F0000000081
:1049B0000000601A61B4D03D7370032E8A19A33BC6
:1049C000FB2139410000000083C8C96D305FE43F1E
:1049D000000000000000E03FC22F0000102F000088
:1049E000000000000000103E000000000000103C2D
:1049F000000000000000103A182D4454FB21F93D3E
:104A00003326A611460B113C00000054FB21F93D52
:104A100010B52DED040B2DED088B82B0B0EE419A50
:104A2000F0EE619A0B9820F000449FED4BABB4F18F
:104A3000795F11DA9DED0A0B51EC100B02F07AF957
:104A4000002801BFB0EE4A0AF0EE6A0A02B0BDECDF
:104A5000088B04BF04B010BD9DED0A0B53EC102B66
:104A600051EC100B02F0C0F941EC180B3C48062148
:104A7000B0EE480AF0EE680A784400F081F853EC92
:104A8000182B51EC100B02F0AFF99DED0A0B41EC25
:104A90001B0B53EC192B51EC100B02F0A5F941EC58
:104AA000190B53EC1B2B51EC180B02F09DF953EC36
:104AB000192B02F0A3FA9FED2C0B41EC190B53ECD0
:104AC000102B51EC180B02F08FF941EC100B284819
:104AD000844210DA53EC192B51EC100B02F08EFAD1
:104AE00053EC1A2B02F07EFA41EC100B02B0BDEC35
:104AF000088B04B010BD1F48A042BCBF9FED1E1B19
:104B00008DED001B06DBA4F5001001900020009045
:104B10009DED001B51EC100B53EC112B02F06EFAC3
:104B20009DED000B41EC180B53EC102B51EC1A0BC4
:104B300002F064FA41EC1A0B53EC192B51EC180BF0
:104B400002F05CFA53EC1A2B02F04CFA41EC100B19
:104B5000CCE7000000000000000000000000F03F73
:104B6000342C000000000000000000000000E03FC6
:104B70003333D33F0000E93F000000000000D23F84
:104B800070B504462DED028B4D1E00EBC500B0EE56
:104B9000408AF0EE608A90ED000B35F0060017D0E9
:104BA00053EC182B51EC100B02F01EF941EC100BDA
:104BB0006D1E04EBC50090ED001B51EC100B53EC87
:104BC000112B01F0B7FE41EC100B35F00600E7D1D8
:104BD000022D36D0042D1CD0062D1CBFBDEC028B3F
:104BE00070BD53EC182B51EC100B02F0FDF894ED56
:104BF0000A1B53EC112B01F09DFE53EC182B02F015
:104C0000F3F894ED081B53EC112B01F093FE41ECEB
:104C1000100B53EC182B51EC100B02F0E5F894ED4F
:104C2000061B53EC112B01F085FE53EC182B02F000
:104C3000DBF894ED040B53EC102B01F07BFE41EC00
:104C4000100B53EC182B51EC100B02F0CDF894ED37
:104C5000021B53EC112B01F06DFE53EC182B02F0EC
:104C6000C3F894ED001B53EC112B01F063FEBDEC77
:104C7000028B41EC100B70BD31B504462DED040BD9
:104C80002DED0A8BB0EE41BAF0EE61BA0B989DEDB6
:104C90000A0B20F00040B0F1795F0DDA51EC100BF7
:104CA000FFF7A7FB042808BF00F09AF89DED0A0B58
:104CB000BDEC0A8B05B030BD53EC102B51EC100B42
:104CC00002F092F841EC180B9DED0A0B53EC182BF7
:104CD00051EC100B02F088F841EC190B2C48B0EEA7
:104CE000480AF0EE680A05217844FFF749FF9FED76
:104CF0002ACBB0EE40AAF0EE60AA9CB353EC1C2B7A
:104D000051EC190B02F070F841EC1C0B53EC1A2B10
:104D100051EC190B02F068F89FED210B41EC190BD7
:104D200053EC102B51EC1B0B02F05EF853EC192BDB
:104D300002F064F953EC182B02F056F853EC1B2BDD
:104D400002F05CF953EC1C2B02F058F99DED0A1BA4
:104D500053EC112B02F046F9BDEC0A8B05B041EC87
:104D6000100B30BDFFE753EC1A2B51EC180B02F07F
:104D70003BF853EC1C2B01F0DDFD53EC192B02F03A
:104D800033F89DED0A1B53EC112B01F0D3FDE3E743
:104D9000BC2A000000000000495555555555C5BFB7
:104DA000000000000000E03F10B553EC102B51EC68
:104DB000100B01F0BFFD41EC100B10BD0000000016
:104DC0009FED050B10B553EC102B51EC100B01F0BF
:104DD00059FE41EC100B10BD000000000000000067
:104DE0009FED050B10B553EC102B51EC100B01F09F
:104DF000FBFF41EC100B10BD000000000000001094
:104E00000A8852BA02804A8852BA42808A8852BAC4
:104E1000828089798171704770B54B4C4B4DB4F9E4
:104E2000000000EE100AB5F90C00F8EEC00A00EE22
:104E3000100A4748B8EEC00AFEF77CFCB4F902003D
:104E400000EE100AB5F91600F8EEC00A00EE100ADE
:104E50003F48B8EEC00A4430FEF76CFCB4F90400D9
:104E600000EE100AB5F92000F8EEC00A00EE100AB4
:104E70003748B8EEC00A8830FEF75CFCB4F906008B
:104E800000EE100AB5F92A00F8EEC00A00EE100A8A
:104E90002F48B8EEC00ACC30FEF74CFC2D4D2C4C00
:104EA000287A443C01281FD100F0B4F894ED4B0A55
:104EB000BDEEC00A10EE100A94ED3A0A03B2BDEE40
:104EC000C00A10EE100A94ED290A02B2BDEEC00A23
:104ED00010EE100A94ED180A01B2BDEEC00A10EEF1
:104EE000100A00B2FBF708FC287A032805D100233A
:104EF0001A4619461846FBF7FFFB287A022821D1EB
:104F000000F0B6F894ED4B0ABDEEC00A10EE100AA0
:104F100094ED3A0A03B2BDEEC00A10EE100A94ED09
:104F2000290A02B2BDEEC00A10EE100A94ED180A6A
:104F3000BDE87040BDEEC00A01B210EE100A00B22A
:104F4000FBF7DABB70BD0000804400207C470020E6
:104F5000384800200847002010B541F288342DED74
:104F6000028B22469FED268A1146B2EE060AB0EE6B
:104F7000481AF0EE480A2348FEF738FC214822463A
:104F80001146B0EE481AF0EE480AB2EE060A443076
:104F9000FEF72CFC1B4822461146B0EE481AF0EEF4
:104FA000480AB2EE060A8830FEF720FC1548224671
:104FB0001146B0EE481AF0EE480AB2EE060ACC30BE
:104FC000FEF714FC224641F27071B0EE481AF0EE82
:104FD000480A9FED0D0A0D48FEF708FCB0EE481A8E
:104FE000F0EE480A6200BDEC028B4FF4FA5107481C
:104FF000BDE810409FED060A4430FEF7F7BB000005
:1050000000000000384800200000204248490020ED
:105010000000AF43144830B4C18841F2883211FB1C
:1050200002F24FF4257192FBF1F3104A41F28834F9
:105030009360838813FB04F393FBF1F1D160017A51
:1050400001290FD1407A012806D0022807D0032871
:1050500008D130BC00F0BAB930BC00F07FB830BC29
:1050600000F0C2B830BC70470847002080440020E0
:10507000DFED351A9FED352A10B5F0EE610AB0EE7E
:10508000420A334801F08EFB3148F0EE610AB0EE7F
:10509000420A001D01F086FB2E480021428A2C485E
:1050A0000838012A22D0022A23D0042A25D0082A2F
:1050B00026D0052A28D0062A29D0092A2BD00A2A48
:1050C0002CD08160C160244CD3044FF0010002D584
:1050D000C4E902102161130502D5C4E9020121616E
:1050E00092041FD5A160C4E9031023E083681B1D4F
:1050F00001E083681B1F8360E5E7C3681B1F01E0B5
:10510000C3681B1DC360DEE783681B1D01E0836865
:105110001B1F8360F1E783681B1D01E083681B1F71
:105120008360EDE7E068012801D100F017F82069FD
:10513000012801D100F058F8A068012803D1BDE88A
:10514000104000F043B910BD00007AC500007A4558
:1051500088440020084700209C0000201E4810B50D
:1051600000210182D0E902315A1A00EE102ADFED47
:105170001C0AB8EEC01A9FED190A00EE201ABDEE07
:10518000C11A11EE102A02805A18544201EE104A38
:10519000C91AB8EEC11A00EE201AFDEEC10A9FED41
:1051A000111A10EE904A00EE901A4480F8EEE00AD0
:1051B00040EE010AFDEEE00A10EE901A00EE902A91
:1051C0008180F8EEE00A40EE010ABDEEE00A10EE42
:1051D000101AC18010BD00008044002000000000B3
:1051E000EB5138BEAF4761BE70B52DED068BDFEDDC
:1051F0006E0A6E4841F68B514089081A00EE100A7B
:10520000B8EEC00AB5EEC00AF1EE10FA03D29FED77
:10521000681A30EE010AB0EE001A20EE010A9FED86
:10522000651A20EE010A9FED641A644D644C20EE6D
:10523000018AB0EE600AB5EEC00A85ED018AF1EE92
:1052400010FA04D1F5EEC00AF1EE10FA02D04FF4D4
:10525000FA5001E041F288302082A06801F099FD07
:1052600041EC190B18EE100A01F0B2FF41EC100BE3
:10527000FFF7EAF853EC192B51EC100B01F0B4FDD9
:1052800041EC190BE06801F084FD41EC180B6868F3
:1052900001F09EFF41EC100BFFF73AF953EC182B8D
:1052A00051EC100B01F0A0FD53EC192B01F0A6FE00
:1052B00001F00EFB08EE100AE06801F06AFD41EC17
:1052C000190B686801F084FF41EC100BFFF7BCF884
:1052D00053EC192B51EC100B01F086FD41EC190B2E
:1052E000A06801F056FD41EC1A0B686801F070FFF0
:1052F00041EC100BFFF70CF951EC100B01F0DCFA4C
:1053000053EC1A2B01F070FD53EC192B01F076FED3
:1053100001F0DEFA00EE100A9FED2A1AB4F910002F
:1053200078EE400A70EE811A00EE900AF8EEE00A7C
:1053300071EEA00AFDEEE00A10EE901AF1EE480AB6
:10534000218070EEC00A30EE811A00EE900AF8EE6D
:10535000E00A71EE200A9FED1C1AFDEEE00A10EE45
:10536000901A70EE480A38EE000A618070EE811AD9
:1053700000EE900AF8EEE00A71EEA00AFDEEE00AF7
:1053800010EE901A70EE010A00EE100AA180B8EE3D
:10539000C00A30EE800ABDEEC00A10EE100AE080AE
:1053A000BDEC068B70BD000000000000AE47002081
:1053B00000000046DA0F4940000000399C00002040
:1053C00080440020EB5138BEAF4761BE70B53A4C07
:1053D000B4F90A00FEF7F9FFBDEEC00A3749DFED68
:1053E000380A10EE100A00B200EE100A08803548A4
:1053F000B8EEC00AFEF79EF9B4F90C00324D00EE8B
:10540000100A05F5CC70D5ED5C0AB8EEC00AFEF7BF
:1054100091F995ED6D0A2D49DFED2D0AB1EE400AA7
:10542000BDEEC00A10EE100A00B20882D1E90242B5
:10543000A31A00EE103AB8EEC01A00EE100AB8EE49
:10544000C00A00EE201ABDEEC10A10EE103A0B8021
:10545000A3185D4200EE105A121BB8EEC01A00EEFF
:10546000100AB8EEC00A00EE201ADFED1A0ABDEEEF
:10547000C10A10EE105A00EE102A4D80B8EEC01A84
:1054800000EE100AB8EEC00A00EE201ABDEEC10A06
:1054900010EE102A00EE103A8A80B8EEC01A00EE24
:1054A000100AB8EEC00A00EE201ABDEEC10A10EED6
:1054B000100AC88070BD0000AE4700209C0000208C
:1054C0000058EC4548490020F44700208044002063
:1054D000EB5138BEAF4761BEF0B50388002541F2FD
:1054E00021070CE04C5D002683EA04235C001B04CA
:1054F00000D57C40761C2346082EF7D36D1C9542C0
:10550000F0D30380F0BD82B0CDE9000121F000406E
:1055100001909DED000B02B051EC100B70470000A4
:10552000024B0ECB80E80E0000207047144E002086
:10553000028802810A8852BA02804A8852BA42809E
:105540008A8852BA828089798171704710B5034C7C
:105550001ECC80E81E00002010BD0000204E002060
:105560000349D1F802200260C98881800020704779
:105570000401002003498A68026089898180002033
:1055800070470000040100200349D1F80E2002609A
:10559000498A8180002070470401002070B501F025
:1055A00043F9264C264E274D207A01281AD100F0C7
:1055B00091F896ED4B0ABDEEC00A10EE100A95ED7B
:1055C0004B0A01B2BDEEC00A10EE100A00B2FBF7A2
:1055D000B7F895ED290ABDEEC00A10EE100A00B228
:1055E000FBF7CCF8207A032806D100210846FBF708
:1055F000A7F80020FBF7C2F8207A02281CD100F09F
:105600008DF896ED4B0ABDEEC00A10EE100A95ED2E
:105610004B0A01B2BDEEC00A10EE100A00B2FBF751
:105620008FF895ED290ABDE87040BDEEC00A10EE76
:10563000100A00B2FBF7A2B870BD000008470020B6
:10564000684B0020144A002070B543F698242DEDD5
:10565000028B44F620659FED1A8A22462946B0EE59
:10566000481AF0EE480AB2EE080A1648FEF7BEF8ED
:10567000144822462946B0EE481ADFED130A9FED82
:10568000130A4430FEF7B2F80E4822462946B0EE1F
:10569000481AF0EE480AB2EE0E0A8830FEF7A6F875
:1056A000B0EE481AF0EE480ABDEC028B22462946BD
:1056B000BDE8704003489FED060ACC30FEF796B86F
:1056C00000000000584A0020CDCCCC3D000096439D
:1056D0000000D2420E49B1F9000000EE100A0D4858
:1056E000B8EEC01AD0ED000A9FED0B0A41EE000A99
:1056F000C0ED000AB1F9021000EE901AB8EEE01AFF
:10570000D0ED010A41EE000AC0ED010A7047000029
:1057100008470020B000002077CC2B320E49B1F9A9
:10572000000000EE100A0D48B8EEC01AD0ED000AD5
:105730009FED0B0A41EE000AC0ED000AB1F902101C
:1057400000EE901AB8EEE01AD0ED010A41EE000A20
:10575000C0ED010A7047000008470020B00000209B
:105760005F70893000B50C48FFF7FAFE0A48801DCB
:10577000FFF700FF08480C30FFF706FF0748FFF768
:10578000CFFE06480C30FFF7E1FE03481338411EF8
:105790000978017000BD000018010020304E002083
:1057A00010B503490348FEF7BFF8002010BD000004
:1057B000FD350008884D0020FCF724FAFEF710F9AB
:1057C000FDF7C0FDFDF732FDFDF7EAFDFDF752FEE6
:1057D000FDF76CFEFDF716FEFDF78AFEFDF7DEFC19
:1057E000FDF700FDFDF72AFEFFF7B6FBFFF72CFFE4
:1057F00000F0A8FBFBF765F90348FCF71BFEFDF77B
:105800004BFD00F010F8FEE7E40300200146002005
:10581000842900D0C81C704710B500B9012000F0E1
:10582000CDFC002010BD10B500F0EEFC002010BD36
:105830007FB50D4604464169B0F9080081B1A16900
:1058400071B1FFF7E3FFD4E905128DE80700D4E951
:1058500000102B46226900F0B2FE039004B070BD28
:10586000FFF7D4FF03A9CDE90001208A2B4682B2BD
:10587000D4E9001000F076FE012801D00020EDE709
:105880000398EBE790ED001AB4EEC01AF1EE10FAAF
:1058900002DCB0EE410A01E080ED000AB4EEE00A5D
:1058A000F1EE10FA01D2C0ED000A70472DE9F04187
:1058B000184C0F460546E6682068001D00F0B6FB50
:1058C00038B9206890F82C10012088402169814364
:1058D0002161681C07D137B12168BDE8F0410E484D
:1058E000091D00F0E7BB20683544B54245602168DA
:1058F00005D2A06BBDE8F041091D00F0C3BB606B91
:10590000091D00F0BFFBA06A854200D2A562BDE878
:10591000F081000034000020240800202DE9F0412F
:10592000054600F0D3FB2E4CA068401CA060206808
:105930002C4F10B1606940B32DE02560A0680128AC
:1059400029D1002606EB860007EB800000F08CFBD7
:10595000761C072EF6D323488C3000F085FB2148B7
:10596000A03000F081FB1F48B43000F07DFB1D48E3
:10597000C83000F079FB1B48DC3000F075FB19489B
:105980008C3060631430A06305E02068E96AC06A67
:10599000884200D82560606A401C6062E96A012084
:1059A000226988401043206101EB810007EB8000F1
:1059B000291D00F07FFB00F0A9FB606900280CD0D6
:1059C0002068E96AC06A884207D207494FF08050D0
:1059D0000860BFF34F8FBFF36F8FBDE8F081000009
:1059E000340000204807002004ED00E010B5044614
:1059F00090F8510058B101280CD002280FD0502047
:105A000080F31188BFF34F8FBFF36F8FFEE7206BDA
:105A100000F090FB2046BDE8104000F08BBB10BDAD
:105A200010484FF47051420706D0C01D0D4920F0B8
:105A30000700411AC1F570510B4A00230144C2E925
:105A400000030839183A21F0070111604B600B6020
:105A50000B1AC0E9001393604FF00040536050618F
:105A6000704700003808002088000020144E154CB4
:105A7000A6F1C8074FF08058DFF84C9012E000BF45
:105A800000F024FBF068C568281D00F0CFFAA0687C
:105A9000401EA0606068401E606000F037FB284632
:105AA000FFF7A4FF60680028EAD138680128F9D917
:105AB000C9F80080BFF34F8FBFF36F8FF2E700008C
:105AC000100800203400002004ED00E02DE9F0472C
:105AD0009A46DDE9098481466FF00303206B03EBEE
